{
  "_format": "hh-sol-artifact-1",
  "contractName": "NFTMarketplace",
  "sourceName": "contracts/NFTMarketplace.sol",
  "abi": [
    {
      "inputs": [],
      "stateMutability": "nonpayable",
      "type": "constructor"
    },
    {
      "anonymous": false,
      "inputs": [
        {
          "indexed": true,
          "internalType": "address",
          "name": "owner",
          "type": "address"
        },
        {
          "indexed": true,
          "internalType": "address",
          "name": "approved",
          "type": "address"
        },
        {
          "indexed": true,
          "internalType": "uint256",
          "name": "tokenId",
          "type": "uint256"
        }
      ],
      "name": "Approval",
      "type": "event"
    },
    {
      "anonymous": false,
      "inputs": [
        {
          "indexed": true,
          "internalType": "address",
          "name": "owner",
          "type": "address"
        },
        {
          "indexed": true,
          "internalType": "address",
          "name": "operator",
          "type": "address"
        },
        {
          "indexed": false,
          "internalType": "bool",
          "name": "approved",
          "type": "bool"
        }
      ],
      "name": "ApprovalForAll",
      "type": "event"
    },
    {
      "anonymous": false,
      "inputs": [
        {
          "indexed": false,
          "internalType": "uint256",
          "name": "_fromTokenId",
          "type": "uint256"
        },
        {
          "indexed": false,
          "internalType": "uint256",
          "name": "_toTokenId",
          "type": "uint256"
        }
      ],
      "name": "BatchMetadataUpdate",
      "type": "event"
    },
    {
      "anonymous": false,
      "inputs": [
        {
          "indexed": false,
          "internalType": "uint256",
          "name": "_tokenId",
          "type": "uint256"
        }
      ],
      "name": "MetadataUpdate",
      "type": "event"
    },
    {
      "anonymous": false,
      "inputs": [
        {
          "indexed": true,
          "internalType": "address",
          "name": "from",
          "type": "address"
        },
        {
          "indexed": true,
          "internalType": "address",
          "name": "to",
          "type": "address"
        },
        {
          "indexed": true,
          "internalType": "uint256",
          "name": "tokenId",
          "type": "uint256"
        }
      ],
      "name": "Transfer",
      "type": "event"
    },
    {
      "inputs": [
        {
          "internalType": "address",
          "name": "to",
          "type": "address"
        },
        {
          "internalType": "uint256",
          "name": "tokenId",
          "type": "uint256"
        }
      ],
      "name": "approve",
      "outputs": [],
      "stateMutability": "nonpayable",
      "type": "function"
    },
    {
      "inputs": [
        {
          "internalType": "address",
          "name": "owner",
          "type": "address"
        }
      ],
      "name": "balanceOf",
      "outputs": [
        {
          "internalType": "uint256",
          "name": "",
          "type": "uint256"
        }
      ],
      "stateMutability": "view",
      "type": "function"
    },
    {
      "inputs": [
        {
          "internalType": "string",
          "name": "tokenURI",
          "type": "string"
        },
        {
          "internalType": "uint256",
          "name": "price",
          "type": "uint256"
        }
      ],
      "name": "createToken",
      "outputs": [
        {
          "internalType": "uint256",
          "name": "",
          "type": "uint256"
        }
      ],
      "stateMutability": "payable",
      "type": "function"
    },
    {
      "inputs": [
        {
          "internalType": "uint256",
          "name": "tokenId",
          "type": "uint256"
        }
      ],
      "name": "executeSales",
      "outputs": [],
      "stateMutability": "payable",
      "type": "function"
    },
    {
      "inputs": [],
      "name": "getAllNFTs",
      "outputs": [
        {
          "components": [
            {
              "internalType": "uint256",
              "name": "tokenId",
              "type": "uint256"
            },
            {
              "internalType": "address payable",
              "name": "owner",
              "type": "address"
            },
            {
              "internalType": "address payable",
              "name": "seller",
              "type": "address"
            },
            {
              "internalType": "uint256",
              "name": "price",
              "type": "uint256"
            },
            {
              "internalType": "bool",
              "name": "currentlyListed",
              "type": "bool"
            }
          ],
          "internalType": "struct NFTMarketplace.ListedToken[]",
          "name": "",
          "type": "tuple[]"
        }
      ],
      "stateMutability": "view",
      "type": "function"
    },
    {
      "inputs": [
        {
          "internalType": "uint256",
          "name": "tokenId",
          "type": "uint256"
        }
      ],
      "name": "getApproved",
      "outputs": [
        {
          "internalType": "address",
          "name": "",
          "type": "address"
        }
      ],
      "stateMutability": "view",
      "type": "function"
    },
    {
      "inputs": [],
      "name": "getCurrentToken",
      "outputs": [
        {
          "internalType": "uint256",
          "name": "",
          "type": "uint256"
        }
      ],
      "stateMutability": "view",
      "type": "function"
    },
    {
      "inputs": [],
      "name": "getLatestIdToListedToken",
      "outputs": [
        {
          "components": [
            {
              "internalType": "uint256",
              "name": "tokenId",
              "type": "uint256"
            },
            {
              "internalType": "address payable",
              "name": "owner",
              "type": "address"
            },
            {
              "internalType": "address payable",
              "name": "seller",
              "type": "address"
            },
            {
              "internalType": "uint256",
              "name": "price",
              "type": "uint256"
            },
            {
              "internalType": "bool",
              "name": "currentlyListed",
              "type": "bool"
            }
          ],
          "internalType": "struct NFTMarketplace.ListedToken",
          "name": "",
          "type": "tuple"
        }
      ],
      "stateMutability": "view",
      "type": "function"
    },
    {
      "inputs": [],
      "name": "getListPrice",
      "outputs": [
        {
          "internalType": "uint256",
          "name": "",
          "type": "uint256"
        }
      ],
      "stateMutability": "view",
      "type": "function"
    },
    {
      "inputs": [
        {
          "internalType": "uint256",
          "name": "tokenId",
          "type": "uint256"
        }
      ],
      "name": "getListedForTokenId",
      "outputs": [
        {
          "components": [
            {
              "internalType": "uint256",
              "name": "tokenId",
              "type": "uint256"
            },
            {
              "internalType": "address payable",
              "name": "owner",
              "type": "address"
            },
            {
              "internalType": "address payable",
              "name": "seller",
              "type": "address"
            },
            {
              "internalType": "uint256",
              "name": "price",
              "type": "uint256"
            },
            {
              "internalType": "bool",
              "name": "currentlyListed",
              "type": "bool"
            }
          ],
          "internalType": "struct NFTMarketplace.ListedToken",
          "name": "",
          "type": "tuple"
        }
      ],
      "stateMutability": "view",
      "type": "function"
    },
    {
      "inputs": [],
      "name": "getMyNfts",
      "outputs": [
        {
          "components": [
            {
              "internalType": "uint256",
              "name": "tokenId",
              "type": "uint256"
            },
            {
              "internalType": "address payable",
              "name": "owner",
              "type": "address"
            },
            {
              "internalType": "address payable",
              "name": "seller",
              "type": "address"
            },
            {
              "internalType": "uint256",
              "name": "price",
              "type": "uint256"
            },
            {
              "internalType": "bool",
              "name": "currentlyListed",
              "type": "bool"
            }
          ],
          "internalType": "struct NFTMarketplace.ListedToken[]",
          "name": "",
          "type": "tuple[]"
        }
      ],
      "stateMutability": "view",
      "type": "function"
    },
    {
      "inputs": [
        {
          "internalType": "address",
          "name": "owner",
          "type": "address"
        },
        {
          "internalType": "address",
          "name": "operator",
          "type": "address"
        }
      ],
      "name": "isApprovedForAll",
      "outputs": [
        {
          "internalType": "bool",
          "name": "",
          "type": "bool"
        }
      ],
      "stateMutability": "view",
      "type": "function"
    },
    {
      "inputs": [],
      "name": "name",
      "outputs": [
        {
          "internalType": "string",
          "name": "",
          "type": "string"
        }
      ],
      "stateMutability": "view",
      "type": "function"
    },
    {
      "inputs": [
        {
          "internalType": "uint256",
          "name": "tokenId",
          "type": "uint256"
        }
      ],
      "name": "ownerOf",
      "outputs": [
        {
          "internalType": "address",
          "name": "",
          "type": "address"
        }
      ],
      "stateMutability": "view",
      "type": "function"
    },
    {
      "inputs": [
        {
          "internalType": "address",
          "name": "from",
          "type": "address"
        },
        {
          "internalType": "address",
          "name": "to",
          "type": "address"
        },
        {
          "internalType": "uint256",
          "name": "tokenId",
          "type": "uint256"
        }
      ],
      "name": "safeTransferFrom",
      "outputs": [],
      "stateMutability": "nonpayable",
      "type": "function"
    },
    {
      "inputs": [
        {
          "internalType": "address",
          "name": "from",
          "type": "address"
        },
        {
          "internalType": "address",
          "name": "to",
          "type": "address"
        },
        {
          "internalType": "uint256",
          "name": "tokenId",
          "type": "uint256"
        },
        {
          "internalType": "bytes",
          "name": "data",
          "type": "bytes"
        }
      ],
      "name": "safeTransferFrom",
      "outputs": [],
      "stateMutability": "nonpayable",
      "type": "function"
    },
    {
      "inputs": [
        {
          "internalType": "address",
          "name": "operator",
          "type": "address"
        },
        {
          "internalType": "bool",
          "name": "approved",
          "type": "bool"
        }
      ],
      "name": "setApprovalForAll",
      "outputs": [],
      "stateMutability": "nonpayable",
      "type": "function"
    },
    {
      "inputs": [
        {
          "internalType": "bytes4",
          "name": "interfaceId",
          "type": "bytes4"
        }
      ],
      "name": "supportsInterface",
      "outputs": [
        {
          "internalType": "bool",
          "name": "",
          "type": "bool"
        }
      ],
      "stateMutability": "view",
      "type": "function"
    },
    {
      "inputs": [],
      "name": "symbol",
      "outputs": [
        {
          "internalType": "string",
          "name": "",
          "type": "string"
        }
      ],
      "stateMutability": "view",
      "type": "function"
    },
    {
      "inputs": [
        {
          "internalType": "uint256",
          "name": "tokenId",
          "type": "uint256"
        }
      ],
      "name": "tokenURI",
      "outputs": [
        {
          "internalType": "string",
          "name": "",
          "type": "string"
        }
      ],
      "stateMutability": "view",
      "type": "function"
    },
    {
      "inputs": [
        {
          "internalType": "address",
          "name": "from",
          "type": "address"
        },
        {
          "internalType": "address",
          "name": "to",
          "type": "address"
        },
        {
          "internalType": "uint256",
          "name": "tokenId",
          "type": "uint256"
        }
      ],
      "name": "transferFrom",
      "outputs": [],
      "stateMutability": "nonpayable",
      "type": "function"
    },
    {
      "inputs": [
        {
          "internalType": "uint256",
          "name": "_listPrice",
          "type": "uint256"
        }
      ],
      "name": "updateListedPrice",
      "outputs": [],
      "stateMutability": "payable",
      "type": "function"
    }
  ],
  "bytecode": "0x6080604052662386f26fc10000600a553480156200001c57600080fd5b50604080518082018252600e81526d4e46544d61726b6574706c61636560901b60208083019182528351808501909452600484526309c8ca8960e31b9084015281519192916200006f91600091620000a0565b50805162000085906001906020840190620000a0565b5050600780546001600160a01b031916331790555062000183565b828054620000ae9062000146565b90600052602060002090601f016020900481019282620000d257600085556200011d565b82601f10620000ed57805160ff19168380011785556200011d565b828001600101855582156200011d579182015b828111156200011d57825182559160200191906001019062000100565b506200012b9291506200012f565b5090565b5b808211156200012b576000815560010162000130565b600181811c908216806200015b57607f821691505b602082108114156200017d57634e487b7160e01b600052602260045260246000fd5b50919050565b61209f80620001936000396000f3fe6080604052600436106101355760003560e01c806372b3b620116100ab578063b88d4fde1161006f578063b88d4fde14610347578063c87b56dd14610367578063d1a88ae514610387578063e0391b091461039c578063e985e9c5146103b1578063ef2d1746146103fa57600080fd5b806372b3b620146102bf57806395d89b41146102d257806398c3df16146102e75780639e52ce1414610314578063a22cb4651461032757600080fd5b806316b94998116100fd57806316b949981461020d57806323b872dd1461022057806342842e0e146102405780636352211e1461026057806368f1945f1461028057806370a082311461029f57600080fd5b806301ffc9a71461013a578063047b07bf1461016f57806306fdde0314610191578063081812fc146101b3578063095ea7b3146101eb575b600080fd5b34801561014657600080fd5b5061015a610155366004611cbc565b61040f565b60405190151581526020015b60405180910390f35b34801561017b57600080fd5b5061018461043a565b6040516101669190611e3a565b34801561019d57600080fd5b506101a661067f565b6040516101669190611e88565b3480156101bf57600080fd5b506101d36101ce366004611d4a565b610711565b6040516001600160a01b039091168152602001610166565b3480156101f757600080fd5b5061020b610206366004611c93565b610738565b005b61020b61021b366004611d4a565b610853565b34801561022c57600080fd5b5061020b61023b366004611ba5565b61097e565b34801561024c57600080fd5b5061020b61025b366004611ba5565b6109af565b34801561026c57600080fd5b506101d361027b366004611d4a565b6109ca565b34801561028c57600080fd5b50600a545b604051908152602001610166565b3480156102ab57600080fd5b506102916102ba366004611b59565b610a2a565b6102916102cd366004611cf4565b610ab0565b3480156102de57600080fd5b506101a6610baa565b3480156102f357600080fd5b50610307610302366004611d4a565b610bb9565b6040516101669190611f7f565b61020b610322366004611d4a565b610c23565b34801561033357600080fd5b5061020b610342366004611c59565b610c92565b34801561035357600080fd5b5061020b610362366004611be0565b610ca1565b34801561037357600080fd5b506101a6610382366004611d4a565b610cd3565b34801561039357600080fd5b50610307610de4565b3480156103a857600080fd5b50610184610e5b565b3480156103bd57600080fd5b5061015a6103cc366004611b73565b6001600160a01b03918216600090815260056020908152604080832093909416825291909152205460ff1690565b34801561040657600080fd5b50610291610fa2565b60006001600160e01b03198216632483248360e11b1480610434575061043482610fb2565b92915050565b6060600061044760085490565b905060008060005b838110156104df5733600b6000610467846001611f8d565b81526020810191909152604001600020600101546001600160a01b031614806104ba575033600b600061049b846001611f8d565b81526020810191909152604001600020600201546001600160a01b0316145b156104cd576104ca600184611f8d565b92505b806104d78161200c565b91505061044f565b5060008267ffffffffffffffff81111561050957634e487b7160e01b600052604160045260246000fd5b60405190808252806020026020018201604052801561054257816020015b61052f611a00565b8152602001906001900390816105275790505b50905060005b848110156106765733600b6000610560846001611f8d565b81526020810191909152604001600020600101546001600160a01b031614806105b3575033600b6000610594846001611f8d565b81526020810191909152604001600020600201546001600160a01b0316145b156106645760006105c5826001611f8d565b6000818152600b6020908152604091829020825160a0810184528154815260018201546001600160a01b039081169382019390935260028201549092169282019290925260038201546060820152600482015460ff16151560808201528551929350909185908790811061064957634e487b7160e01b600052603260045260246000fd5b602090810291909101015261065f600186611f8d565b945050505b8061066e8161200c565b915050610548565b50949350505050565b60606000805461068e90611fd1565b80601f01602080910402602001604051908101604052809291908181526020018280546106ba90611fd1565b80156107075780601f106106dc57610100808354040283529160200191610707565b820191906000526020600020905b8154815290600101906020018083116106ea57829003601f168201915b5050505050905090565b600061071c82611002565b506000908152600460205260409020546001600160a01b031690565b6000610743826109ca565b9050806001600160a01b0316836001600160a01b031614156107b65760405162461bcd60e51b815260206004820152602160248201527f4552433732313a20617070726f76616c20746f2063757272656e74206f776e656044820152603960f91b60648201526084015b60405180910390fd5b336001600160a01b03821614806107d257506107d281336103cc565b6108445760405162461bcd60e51b815260206004820152603d60248201527f4552433732313a20617070726f76652063616c6c6572206973206e6f7420746f60448201527f6b656e206f776e6572206f7220617070726f76656420666f7220616c6c00000060648201526084016107ad565b61084e8383611064565b505050565b6000818152600b60205260409020600301543481146108b45760405162461bcd60e51b815260206004820152601760248201527f5061792074686520726571756972656420616d6f756e7400000000000000000060448201526064016107ad565b6000828152600b602052604090206002810180546004909201805460ff191690556001600160a01b03198216331790556001600160a01b03166108fb600980546001019055565b6109063033856110d2565b600754600a546040516001600160a01b039092169181156108fc0291906000818181858888f19350505050158015610942573d6000803e3d6000fd5b506040516001600160a01b038216903480156108fc02916000818181858888f19350505050158015610978573d6000803e3d6000fd5b50505050565b6109883382611236565b6109a45760405162461bcd60e51b81526004016107ad90611e9b565b61084e8383836110d2565b61084e83838360405180602001604052806000815250610ca1565b6000818152600260205260408120546001600160a01b0316806104345760405162461bcd60e51b8152602060048201526018602482015277115490cdcc8c4e881a5b9d985b1a59081d1bdad95b88125160421b60448201526064016107ad565b60006001600160a01b038216610a945760405162461bcd60e51b815260206004820152602960248201527f4552433732313a2061646472657373207a65726f206973206e6f7420612076616044820152683634b21037bbb732b960b91b60648201526084016107ad565b506001600160a01b031660009081526003602052604090205490565b6000600a543414610b0e5760405162461bcd60e51b815260206004820152602260248201527f53656e6420656e6f756768206d6f6e657920746f206275792074686520746f6b60448201526132b760f11b60648201526084016107ad565b60008211610b6a5760405162461bcd60e51b8152602060048201526024808201527f4d616b6520737572652074686174207072696365206973206e6f74206e6567616044820152637469766560e01b60648201526084016107ad565b610b78600880546001019055565b6000610b8360085490565b9050610b8f33826112b4565b610b9981856112ce565b610ba381846113a0565b9392505050565b60606001805461068e90611fd1565b610bc1611a00565b506000908152600b6020908152604091829020825160a0810184528154815260018201546001600160a01b03908116938201939093526002820154909216928201929092526003820154606082015260049091015460ff161515608082015290565b6007546001600160a01b03163314610c8d5760405162461bcd60e51b815260206004820152602760248201527f4f6e6c79206f776e65722063616e2075706461746520746865206c697374696e6044820152666720707269636560c81b60648201526084016107ad565b600a55565b610c9d33838361143d565b5050565b610cab3383611236565b610cc75760405162461bcd60e51b81526004016107ad90611e9b565b6109788484848461150c565b6060610cde82611002565b60008281526006602052604081208054610cf790611fd1565b80601f0160208091040260200160405190810160405280929190818152602001828054610d2390611fd1565b8015610d705780601f10610d4557610100808354040283529160200191610d70565b820191906000526020600020905b815481529060010190602001808311610d5357829003601f168201915b505050505090506000610d8e60408051602081019091526000815290565b9050805160001415610da1575092915050565b815115610dd3578082604051602001610dbb929190611dce565b60405160208183030381529060405292505050919050565b610ddc8461153f565b949350505050565b610dec611a00565b6000610df760085490565b6000908152600b6020908152604091829020825160a0810184528154815260018201546001600160a01b03908116938201939093526002820154909216928201929092526003820154606082015260049091015460ff161515608082015292915050565b60606000610e6860085490565b905060008167ffffffffffffffff811115610e9357634e487b7160e01b600052604160045260246000fd5b604051908082528060200260200182016040528015610ecc57816020015b610eb9611a00565b815260200190600190039081610eb15790505b5090506000805b83811015610f99576000610ee8826001611f8d565b6000818152600b6020908152604091829020825160a0810184528154815260018201546001600160a01b039081169382019390935260028201549092169282019290925260038201546060820152600482015460ff161515608082015286519293509091869086908110610f6c57634e487b7160e01b600052603260045260246000fd5b6020908102919091010152610f82600185611f8d565b935050508080610f919061200c565b915050610ed3565b50909392505050565b6000610fad60085490565b905090565b60006001600160e01b031982166380ac58cd60e01b1480610fe357506001600160e01b03198216635b5e139f60e01b145b8061043457506301ffc9a760e01b6001600160e01b0319831614610434565b6000818152600260205260409020546001600160a01b03166110615760405162461bcd60e51b8152602060048201526018602482015277115490cdcc8c4e881a5b9d985b1a59081d1bdad95b88125160421b60448201526064016107ad565b50565b600081815260046020526040902080546001600160a01b0319166001600160a01b0384169081179091558190611099826109ca565b6001600160a01b03167f8c5be1e5ebec7d5bd14f71427d1e84f3dd0314c0f7b2291e5b200ac8c7c3b92560405160405180910390a45050565b826001600160a01b03166110e5826109ca565b6001600160a01b03161461110b5760405162461bcd60e51b81526004016107ad90611f3a565b6001600160a01b03821661116d5760405162461bcd60e51b8152602060048201526024808201527f4552433732313a207472616e7366657220746f20746865207a65726f206164646044820152637265737360e01b60648201526084016107ad565b826001600160a01b0316611180826109ca565b6001600160a01b0316146111a65760405162461bcd60e51b81526004016107ad90611f3a565b600081815260046020908152604080832080546001600160a01b03199081169091556001600160a01b0387811680865260038552838620805460001901905590871680865283862080546001019055868652600290945282852080549092168417909155905184937fddf252ad1be2c89b69c2b068fc378daa952ba7f163c4a11628f55a4df523b3ef91a4505050565b600080611242836109ca565b9050806001600160a01b0316846001600160a01b0316148061128957506001600160a01b0380821660009081526005602090815260408083209388168352929052205460ff165b80610ddc5750836001600160a01b03166112a284610711565b6001600160a01b031614949350505050565b610c9d8282604051806020016040528060008152506115b2565b6000828152600260205260409020546001600160a01b03166113495760405162461bcd60e51b815260206004820152602e60248201527f45524337323155524953746f726167653a2055524920736574206f66206e6f6e60448201526d32bc34b9ba32b73a103a37b5b2b760911b60648201526084016107ad565b6000828152600660209081526040909120825161136892840190611a2e565b506040518281527ff8e1a15aba9398e019f0b49df1a4fde98ee17ae345cb5f6b5e2c27f5033e8ce79060200160405180910390a15050565b6040805160a081018252838152306020808301828152338486018181526060860188815260016080880181815260008c8152600b9097529890952096518755925193860180546001600160a01b039586166001600160a01b03199182161790915590516002870180549190951691161790925551600384015592516004909201805492151560ff1990931692909217909155610c9d9190846110d2565b816001600160a01b0316836001600160a01b0316141561149f5760405162461bcd60e51b815260206004820152601960248201527f4552433732313a20617070726f766520746f2063616c6c65720000000000000060448201526064016107ad565b6001600160a01b03838116600081815260056020908152604080832094871680845294825291829020805460ff191686151590811790915591519182527f17307eab39ab6107e8899845ad3d59bd9653f200f220920489ca2b5937696c31910160405180910390a3505050565b6115178484846110d2565b611523848484846115e5565b6109785760405162461bcd60e51b81526004016107ad90611ee8565b606061154a82611002565b600061156160408051602081019091526000815290565b905060008151116115815760405180602001604052806000815250610ba3565b8061158b846116f2565b60405160200161159c929190611dce565b6040516020818303038152906040529392505050565b6115bc838361179d565b6115c960008484846115e5565b61084e5760405162461bcd60e51b81526004016107ad90611ee8565b60006001600160a01b0384163b156116e757604051630a85bd0160e11b81526001600160a01b0385169063150b7a0290611629903390899088908890600401611dfd565b602060405180830381600087803b15801561164357600080fd5b505af1925050508015611673575060408051601f3d908101601f1916820190925261167091810190611cd8565b60015b6116cd573d8080156116a1576040519150601f19603f3d011682016040523d82523d6000602084013e6116a6565b606091505b5080516116c55760405162461bcd60e51b81526004016107ad90611ee8565b805181602001fd5b6001600160e01b031916630a85bd0160e11b149050610ddc565b506001949350505050565b606060006116ff83611928565b600101905060008167ffffffffffffffff81111561172d57634e487b7160e01b600052604160045260246000fd5b6040519080825280601f01601f191660200182016040528015611757576020820181803683370190505b5090508181016020015b600019016f181899199a1a9b1b9c1cb0b131b232b360811b600a86061a8153600a850494508461179057611795565b611761565b509392505050565b6001600160a01b0382166117f35760405162461bcd60e51b815260206004820181905260248201527f4552433732313a206d696e7420746f20746865207a65726f206164647265737360448201526064016107ad565b6000818152600260205260409020546001600160a01b0316156118585760405162461bcd60e51b815260206004820152601c60248201527f4552433732313a20746f6b656e20616c7265616479206d696e7465640000000060448201526064016107ad565b6000818152600260205260409020546001600160a01b0316156118bd5760405162461bcd60e51b815260206004820152601c60248201527f4552433732313a20746f6b656e20616c7265616479206d696e7465640000000060448201526064016107ad565b6001600160a01b038216600081815260036020908152604080832080546001019055848352600290915280822080546001600160a01b0319168417905551839291907fddf252ad1be2c89b69c2b068fc378daa952ba7f163c4a11628f55a4df523b3ef908290a45050565b60008072184f03e93ff9f4daa797ed6e38ed64bf6a1f0160401b83106119675772184f03e93ff9f4daa797ed6e38ed64bf6a1f0160401b830492506040015b6d04ee2d6d415b85acef81000000008310611993576d04ee2d6d415b85acef8100000000830492506020015b662386f26fc1000083106119b157662386f26fc10000830492506010015b6305f5e10083106119c9576305f5e100830492506008015b61271083106119dd57612710830492506004015b606483106119ef576064830492506002015b600a83106104345760010192915050565b6040805160a08101825260008082526020820181905291810182905260608101829052608081019190915290565b828054611a3a90611fd1565b90600052602060002090601f016020900481019282611a5c5760008555611aa2565b82601f10611a7557805160ff1916838001178555611aa2565b82800160010185558215611aa2579182015b82811115611aa2578251825591602001919060010190611a87565b50611aae929150611ab2565b5090565b5b80821115611aae5760008155600101611ab3565b600067ffffffffffffffff80841115611ae257611ae261203d565b604051601f8501601f19908116603f01168101908282118183101715611b0a57611b0a61203d565b81604052809350858152868686011115611b2357600080fd5b858560208301376000602087830101525050509392505050565b80356001600160a01b0381168114611b5457600080fd5b919050565b600060208284031215611b6a578081fd5b610ba382611b3d565b60008060408385031215611b85578081fd5b611b8e83611b3d565b9150611b9c60208401611b3d565b90509250929050565b600080600060608486031215611bb9578081fd5b611bc284611b3d565b9250611bd060208501611b3d565b9150604084013590509250925092565b60008060008060808587031215611bf5578081fd5b611bfe85611b3d565b9350611c0c60208601611b3d565b925060408501359150606085013567ffffffffffffffff811115611c2e578182fd5b8501601f81018713611c3e578182fd5b611c4d87823560208401611ac7565b91505092959194509250565b60008060408385031215611c6b578182fd5b611c7483611b3d565b915060208301358015158114611c88578182fd5b809150509250929050565b60008060408385031215611ca5578182fd5b611cae83611b3d565b946020939093013593505050565b600060208284031215611ccd578081fd5b8135610ba381612053565b600060208284031215611ce9578081fd5b8151610ba381612053565b60008060408385031215611d06578182fd5b823567ffffffffffffffff811115611d1c578283fd5b8301601f81018513611d2c578283fd5b611d3b85823560208401611ac7565b95602094909401359450505050565b600060208284031215611d5b578081fd5b5035919050565b60008151808452611d7a816020860160208601611fa5565b601f01601f19169290920160200192915050565b805182526020808201516001600160a01b039081169184019190915260408083015190911690830152606080820151908301526080908101511515910152565b60008351611de0818460208801611fa5565b835190830190611df4818360208801611fa5565b01949350505050565b6001600160a01b0385811682528416602082015260408101839052608060608201819052600090611e3090830184611d62565b9695505050505050565b6020808252825182820181905260009190848201906040850190845b81811015611e7c57611e69838551611d8e565b9284019260a09290920191600101611e56565b50909695505050505050565b602081526000610ba36020830184611d62565b6020808252602d908201527f4552433732313a2063616c6c6572206973206e6f7420746f6b656e206f776e6560408201526c1c881bdc88185c1c1c9bdd9959609a1b606082015260800190565b60208082526032908201527f4552433732313a207472616e7366657220746f206e6f6e20455243373231526560408201527131b2b4bb32b91034b6b83632b6b2b73a32b960711b606082015260800190565b60208082526025908201527f4552433732313a207472616e736665722066726f6d20696e636f72726563742060408201526437bbb732b960d91b606082015260800190565b60a081016104348284611d8e565b60008219821115611fa057611fa0612027565b500190565b60005b83811015611fc0578181015183820152602001611fa8565b838111156109785750506000910152565b600181811c90821680611fe557607f821691505b6020821081141561200657634e487b7160e01b600052602260045260246000fd5b50919050565b600060001982141561202057612020612027565b5060010190565b634e487b7160e01b600052601160045260246000fd5b634e487b7160e01b600052604160045260246000fd5b6001600160e01b03198116811461106157600080fdfea2646970667358221220cbe43b578ce5ff75e4c28f978f6591dcbe62a031d735237bcff626c678388f1364736f6c63430008040033",
  "linkReferences": {},
  "deployedLinkReferences": {}
}